:100000000C942A000C9434000C9434000C943400AA
:100010000C9434000C9434000C9434000C94340090
:100020000C9434000C9434000C9434000C94340080
:100030000C9434000C9434000C9434000C94340070
:100040000C9434000C9434000C9434000C94340060
:100050000C94340011241FBECFE5D8E0DEBFCDBF25
:100060000E943B000C9449000C94000083B785600B
:1000700083BF12BE0895A09A83B7856083BF12BE66
:1000800091E082B78A3FE8F385B3892785BB12BE2A
:06009000F8CFF894FFCF49
:00000001FF
