:100000000C942A000C944C000C943C000C943C0082
:100010000C943C000C943C000C943C000C943C0070
:100020000C943C000C943C000C943C000C943C0060
:100030000C943C000C943C000C943C000C943C0050
:100040000C943C000C943C000C943C000C943C0040
:100050000C943C0011241FBECFE5D8E0DEBFCDBF1D
:1000600010E0A0E6B0E001C01D92A236B107E1F7B2
:100070000E943E000C945E000C9400008FE084BB54
:1000800083E085BF80E48BBF7894FFCF83E085BF9A
:1000900080E48BBF789408951F920F920FB60F9251
:1000A00011248F939F9385B398E0892785BB9F91F7
:1000B0008F910F900FBE0F901F901895F894FFCF5F
:00000001FF
