:100000000C942A000C948B010C9447000C9447002C
:100010000C9447000C9447000C9447000C94470044
:100020000C9447000C9447000C9447000C94470034
:100030000C9447000C9447000C9447000C94470024
:100040000C9447000C9447000C9447000C94470014
:100050000C94470011241FBECFE5D8E0DEBFCDBF12
:1000600010E0A0E6B0E0E4EDF3E002C005900D92F0
:10007000A23AB107D9F710E0A2EAB0E001C01D92A0
:10008000A43AB107E1F70E9467010C94E8010C94CF
:10009000000084B38F7084BBC19AC09881E08A95B8
:1000A000F1F721E0C29A822F8A95F1F783B3807F1E
:1000B000922F9A95F1F7C298922F9A95F1F7C29ADA
:1000C000922F9A95F1F793B3922F9A95F1F7C298E0
:1000D000922F9A95F1F787FDE5CFC19884B3806F91
:1000E00084BB0895382F662311F4C09801C0C09ACC
:1000F00021E0822F8A95F1F7C29A85B3932F907FE2
:100100008F70982B95BB822F8A95F1F7C298822F1A
:100110008A95F1F7C29A85B33295307F8F70832B21
:1001200085BB822F8A95F1F7C2982A95F1F70E9434
:1001300049000895CF93DF93EC0110C0853251F44C
:10014000219688818053883028F085E261E00E9402
:100150007200888161E00E94720021968881882364
:1001600069F7DF91CF910895EF92FF920F931F935C
:10017000DF93CF9300D000D00F92CDB7DEB79C01B4
:100180008B01FE01319685E0DF011D928A95E9F72A
:10019000FE0135960DC0C9016AE070E00E94C10100
:1001A0008083C9016AE070E00E94C1019B01319720
:1001B0002115310581F7BFEF0F3F1B0779F420E0D0
:1001C00030E0AE014F5F5F4F02C02F5F3F4FFA013B
:1001D000E20FF31F80818823C1F304C025E030E0E3
:1001E000201B310B7E010894E11CF11CE20EF31E72
:1001F000890109C0F70181917F01805D61E00E9462
:1002000072000F5F1F4F05301105A4F30F900F9080
:100210000F900F900F90CF91DF911F910F91FF9052
:10022000EF900895843178F4623031F0633031F02A
:10023000613029F4806403C08C5E01C08C5A8068F0
:1002400060E00E94720008951F93CF93DF93182FF0
:1002500088E99AE30197F1F784B3806F84BBBA9A77
:10026000B89AB99A85B38F7085BBC298C198C09867
:1002700081E0982F9A95F1F7C29AAD9A982F9A95A6
:10028000F1F7C2988A95F1F70E944900812F8C609E
:1002900060E00E94720088E260E00E94720080E4E8
:1002A00060E00E947200C9E6D0E0899161E00E949E
:1002B000720080E0C13AD807C1F780E090E060E0CA
:1002C00070E00E941201DF91CF911F9108958FEF8E
:1002D00084BB15BA80E00E94240181E060E00E94A6
:1002E000720083E085BF80E48BBF789482E061E098
:1002F0000E94120180E690E00E949A0082E060E095
:100300000E9412018091A2009091A30063E070E02E
:100310000E94B400EBCF1F920F920FB60F921124E0
:100320002F933F934F935F936F937F938F939F93FD
:10033000AF93BF93EF93FF938FEF85BB88E893E173
:100340000197F1F715BA8091A2009091A300019650
:100350009093A3008093A20081E060E00E9472006D
:10036000FF91EF91BF91AF919F918F917F916F918D
:100370005F914F913F912F910F900FBE0F901F9063
:10038000189597FB092E07260AD077FD04D00CD0CC
:1003900006D000201AF4709561957F4F0895F6F706
:1003A000909581959F4F0895AA1BBB1B51E107C0F3
:1003B000AA1FBB1FA617B70710F0A61BB70B881FF5
:1003C000991F5A95A9F780959095BC01CD01089584
:0403D000F894FFCFCF
:1003D400436F756E74203D20000C12120C00000057
:1003E400000004021F020400000A15110A040000A0
:1003F400000305090B0B1818001F0E0E0404040457
:100404000401010505151515000E11111F1F1F1FED
:020414000000E6
:00000001FF
