:100000000C942A000C9447000C9447000C94470071
:100010000C9447000C9447000C9447000C94470044
:100020000C9447000C9447000C9447000C94470034
:100030000C9447000C9447000C9447000C94470024
:100040000C9447000C9447000C9447000C94470014
:100050000C94470011241FBECFE5D8E0DEBFCDBF12
:1000600010E0A0E6B0E0E6E9F1E002C005900D92F4
:10007000A237B107D9F710E0A2E7B0E001C01D92A6
:10008000A437B107E1F70E94AD000C94C9000C94AD
:1000900000009C016AE070E00E94B500909371003E
:1000A00080937000C90164E670E00E94B5006AE0C8
:1000B00070E00E94B50070936F0060936E00C901FC
:1000C00068EE73E00E94B50064E670E00E94B5003F
:1000D00070936D0060936C00C90160E177E20E944B
:1000E000B50068EE73E00E94B50070936B006093FA
:1000F0006A0008958FEF84BB80EF8ABB0895AAE65B
:10010000B0E024E030E061E070E040ED57E0CB018A
:10011000022E02C0880F991F0A94E2F78BBBED9163
:10012000FD91E05AFF4F808185BBCA010197F1F72D
:1001300015BA2F5F3F4F2830310549F7089582E403
:1001400087B987EA86B9369A369BFECF84B195B1D6
:100150000E9449000E947F0008958FEF84BB80EFCA
:100160008ABB1BBA0E949F00FCCFAA1BBB1B51E19C
:1001700007C0AA1FBB1FA617B70710F0A61BB70B17
:10018000881F991F5A95A9F780959095BC01CD01BC
:060190000895F894FFCF72
:100196003F065B4F666D7D077F6F01000200020020
:0201A600040053
:00000001FF
