:100000000C942A000C9452000C9434000C9434008C
:100010000C9434000C9434000C9434000C94340090
:100020000C9434000C9434000C9434000C94340080
:100030000C9434000C9434000C9434000C94340070
:100040000C9434000C9434000C9434000C94340060
:100050000C94340011241FBECFE5D8E0DEBFCDBF25
:100060000E9436000C9467000C9400008FEF84BB54
:1000700083E085BF80E48BBF789428EC30E085B3C3
:100080008F6085BB80E197E2F9013197F1F7019725
:10009000D9F715BA80E197E2F9013197F1F70197A5
:1000A000D9F7EDCF1F920F920FB60F9211248F93B5
:1000B0009F9385B3806F85BB80E29EE40197F1F743
:1000C0009F918F910F900FBE0F901F901895F894ED
:0200D000FFCF60
:00000001FF
