:100000000C942A000C943F000C943F000C943F0089
:100010000C943F000C943F000C943F000C943F0064
:100020000C943F000C943F000C943F000C943F0054
:100030000C943F000C943F000C943F000C943F0044
:100040000C943F000C943F000C943F000C943F0034
:100050000C943F0011241FBECFE5D8E0DEBFCDBF1A
:1000600010E0A0E6B0E0EAEAF1E002C005900D92EF
:10007000A237B107D9F70E94B9000C94D3000C94B1
:1000800000009C016AE070E00E94BF009093710044
:1000900080937000C90164E670E00E94BF006AE0CE
:1000A00070E00E94BF0070936F0060936E00C90102
:1000B00068EE73E00E94BF0064E670E00E94BF003B
:1000C00070936D0060936C00C90160E177E20E945B
:1000D000BF0068EE73E00E94BF0070936B006093F6
:1000E0006A000895AF92BF92CF92DF92EF92FF9293
:1000F0000F931F93CF93DF9300E010E021E0A22E37
:10010000B12C90EDC92E97E0D92E21C0C5010C2E3F
:1001100002C0880F991F0A94E2F78BBBC8010E94A6
:100120004100D701ED91FD917D01E05AFF4F8081A3
:1001300085BBC6010197F1F715BA2196C830D105E4
:1001400029F70F5F1F4FB7E200311B0739F08AE62E
:10015000E82E80E0F82EC4E0D0E0D8CFDF91CF9138
:100160001F910F91FF90EF90DF90CF90BF90AF90D5
:1001700008958FEF84BB8ABB0E947200FDCFAA1B3B
:10018000BB1B51E107C0AA1FBB1FA617B70710F082
:10019000A61BB70B881F991F5A95A9F780959095B4
:0A01A000BC01CD010895F894FFCFD3
:1001AA003F065B4F666D7D077F6F0100020003000B
:0201BA0004003F
:00000001FF
